{"abi":[{"type":"constructor","inputs":[{"name":"_initialSequencer","type":"address","internalType":"address"},{"name":"_initialStateRoot","type":"bytes32","internalType":"bytes32"},{"name":"_initialOwner","type":"address","internalType":"address"}],"stateMutability":"nonpayable"},{"type":"function","name":"SEQUENCER","inputs":[],"outputs":[{"name":"","type":"address","internalType":"address"}],"stateMutability":"view"},{"type":"function","name":"currentBatchId","inputs":[],"outputs":[{"name":"","type":"uint256","internalType":"uint256"}],"stateMutability":"view"},{"type":"function","name":"currentStateRoot","inputs":[],"outputs":[{"name":"","type":"bytes32","internalType":"bytes32"}],"stateMutability":"view"},{"type":"function","name":"depositIntent","inputs":[{"name":"_intentId","type":"bytes32","internalType":"bytes32"}],"outputs":[],"stateMutability":"payable"},{"type":"function","name":"intentRegistry","inputs":[{"name":"","type":"bytes32","internalType":"bytes32"}],"outputs":[{"name":"","type":"uint8","internalType":"enum EviceRollup.IntentStatus"}],"stateMutability":"view"},{"type":"function","name":"owner","inputs":[],"outputs":[{"name":"","type":"address","internalType":"address"}],"stateMutability":"view"},{"type":"function","name":"pauseSystem","inputs":[],"outputs":[],"stateMutability":"nonpayable"},{"type":"function","name":"paused","inputs":[],"outputs":[{"name":"","type":"bool","internalType":"bool"}],"stateMutability":"view"},{"type":"function","name":"renounceOwnership","inputs":[],"outputs":[],"stateMutability":"nonpayable"},{"type":"function","name":"setVerifier","inputs":[{"name":"_verifierAddress","type":"address","internalType":"address"}],"outputs":[],"stateMutability":"nonpayable"},{"type":"function","name":"transferOwnership","inputs":[{"name":"newOwner","type":"address","internalType":"address"}],"outputs":[],"stateMutability":"nonpayable"},{"type":"function","name":"unpauseSystem","inputs":[],"outputs":[],"stateMutability":"nonpayable"},{"type":"function","name":"updateStateWithIntents","inputs":[{"name":"_newStateRoot","type":"bytes32","internalType":"bytes32"},{"name":"_proof","type":"bytes","internalType":"bytes"},{"name":"_resolvedIntentIds","type":"bytes32[]","internalType":"bytes32[]"}],"outputs":[],"stateMutability":"nonpayable"},{"type":"function","name":"verifier","inputs":[],"outputs":[{"name":"","type":"address","internalType":"contract IPlonky3Verifier"}],"stateMutability":"view"},{"type":"event","name":"IntentLocked","inputs":[{"name":"intentId","type":"bytes32","indexed":true,"internalType":"bytes32"},{"name":"user","type":"address","indexed":true,"internalType":"address"},{"name":"amount","type":"uint256","indexed":false,"internalType":"uint256"}],"anonymous":false},{"type":"event","name":"IntentSettled","inputs":[{"name":"intentId","type":"bytes32","indexed":true,"internalType":"bytes32"},{"name":"solver","type":"address","indexed":true,"internalType":"address"}],"anonymous":false},{"type":"event","name":"OwnershipTransferred","inputs":[{"name":"previousOwner","type":"address","indexed":true,"internalType":"address"},{"name":"newOwner","type":"address","indexed":true,"internalType":"address"}],"anonymous":false},{"type":"event","name":"Paused","inputs":[{"name":"account","type":"address","indexed":false,"internalType":"address"}],"anonymous":false},{"type":"event","name":"StateUpdated","inputs":[{"name":"batchId","type":"uint256","indexed":true,"internalType":"uint256"},{"name":"oldStateRoot","type":"bytes32","indexed":false,"internalType":"bytes32"},{"name":"newStateRoot","type":"bytes32","indexed":false,"internalType":"bytes32"}],"anonymous":false},{"type":"event","name":"Unpaused","inputs":[{"name":"account","type":"address","indexed":false,"internalType":"address"}],"anonymous":false},{"type":"event","name":"VerifierUpdated","inputs":[{"name":"newVerifier","type":"address","indexed":true,"internalType":"address"}],"anonymous":false},{"type":"error","name":"EnforcedPause","inputs":[]},{"type":"error","name":"ExpectedPause","inputs":[]},{"type":"error","name":"IntentNotLocked","inputs":[]},{"type":"error","name":"InvalidAmount","inputs":[]},{"type":"error","name":"InvalidProof","inputs":[]},{"type":"error","name":"OwnableInvalidOwner","inputs":[{"name":"owner","type":"address","internalType":"address"}]},{"type":"error","name":"OwnableUnauthorizedAccount","inputs":[{"name":"account","type":"address","internalType":"address"}]},{"type":"error","name":"ReentrancyGuardReentrantCall","inputs":[]},{"type":"error","name":"UnauthorizedSequencer","inputs":[]}],"bytecode":{"object":"0x60a060405234801561000f575f5ffd5b506040516114c13803806114c1833981810160405281019061003191906102a6565b80600161005061004561012060201b60201c565b61014960201b60201c565b5f01819055505f73ffffffffffffffffffffffffffffffffffffffff168173ffffffffffffffffffffffffffffffffffffffff16036100c6575f6040517f1e4fbdf70000000000000000000000000000000000000000000000000000000081526004016100bd9190610305565b60405180910390fd5b6100d58161015260201b60201c565b508273ffffffffffffffffffffffffffffffffffffffff1660808173ffffffffffffffffffffffffffffffffffffffff1681525050816001819055505f60038190555050505061031e565b5f7f9b779b17422d0df92223018b32b4d1fa46e071723d6817e2486d003becc55f005f1b905090565b5f819050919050565b5f5f60019054906101000a900473ffffffffffffffffffffffffffffffffffffffff169050815f60016101000a81548173ffffffffffffffffffffffffffffffffffffffff021916908373ffffffffffffffffffffffffffffffffffffffff1602179055508173ffffffffffffffffffffffffffffffffffffffff168173ffffffffffffffffffffffffffffffffffffffff167f8be0079c531659141344cd1fd0a4f28419497f9722a3daafe3b4186f6b6457e060405160405180910390a35050565b5f5ffd5b5f73ffffffffffffffffffffffffffffffffffffffff82169050919050565b5f61024282610219565b9050919050565b61025281610238565b811461025c575f5ffd5b50565b5f8151905061026d81610249565b92915050565b5f819050919050565b61028581610273565b811461028f575f5ffd5b50565b5f815190506102a08161027c565b92915050565b5f5f5f606084860312156102bd576102bc610215565b5b5f6102ca8682870161025f565b93505060206102db86828701610292565b92505060406102ec8682870161025f565b9150509250925092565b6102ff81610238565b82525050565b5f6020820190506103185f8301846102f6565b92915050565b60805161117d6103445f395f81816103e2015281816105d00152610924015261117d5ff3fe6080604052600436106100dc575f3560e01c80638da5cb5b1161007e578063dc1d4fb711610058578063dc1d4fb714610258578063df39565b1461026e578063f2fde38b146102aa578063f6eb8eca146102d2576100dc565b80638da5cb5b146101dc57806397b7fe2714610206578063ac2eba981461022e576100dc565b80635437988d116100ba5780635437988d1461014a5780635c975abb14610172578063715018a61461019c57806375fd4ca9146101b2576100dc565b80630a763da1146100e05780632b7ac3f31461010a5780634c76124014610134575b5f5ffd5b3480156100eb575f5ffd5b506100f46102ee565b6040516101019190610c38565b60405180910390f35b348015610115575f5ffd5b5061011e6102f4565b60405161012b9190610ccb565b60405180910390f35b34801561013f575f5ffd5b50610148610319565b005b348015610155575f5ffd5b50610170600480360381019061016b9190610d27565b61032b565b005b34801561017d575f5ffd5b506101866103b9565b6040516101939190610d6c565b60405180910390f35b3480156101a7575f5ffd5b506101b06103cd565b005b3480156101bd575f5ffd5b506101c66103e0565b6040516101d39190610d94565b60405180910390f35b3480156101e7575f5ffd5b506101f0610404565b6040516101fd9190610d94565b60405180910390f35b348015610211575f5ffd5b5061022c60048036038101906102279190610e96565b61042c565b005b348015610239575f5ffd5b506102426106a6565b60405161024f9190610f36565b60405180910390f35b348015610263575f5ffd5b5061026c6106ac565b005b348015610279575f5ffd5b50610294600480360381019061028f9190610f4f565b6106be565b6040516102a19190610fed565b60405180910390f35b3480156102b5575f5ffd5b506102d060048036038101906102cb9190610d27565b6106db565b005b6102ec60048036038101906102e79190610f4f565b61075f565b005b60035481565b60025f9054906101000a900473ffffffffffffffffffffffffffffffffffffffff1681565b61032161083b565b6103296108c2565b565b610333610922565b8060025f6101000a81548173ffffffffffffffffffffffffffffffffffffffff021916908373ffffffffffffffffffffffffffffffffffffffff1602179055508073ffffffffffffffffffffffffffffffffffffffff167fd24015cc99cc1700cafca3042840a1d8ac1e3964fd2e0e37ea29c654056ee32760405160405180910390a250565b5f5f5f9054906101000a900460ff16905090565b6103d561083b565b6103de5f6109a9565b565b7f000000000000000000000000000000000000000000000000000000000000000081565b5f5f60019054906101000a900473ffffffffffffffffffffffffffffffffffffffff16905090565b610434610922565b61043c610a6c565b610444610aad565b5f600154905060025f9054906101000a900473ffffffffffffffffffffffffffffffffffffffff1673ffffffffffffffffffffffffffffffffffffffff16638f91ba4c828888886040518563ffffffff1660e01b81526004016104aa9493929190611060565b602060405180830381865afa1580156104c5573d5f5f3e3d5ffd5b505050506040513d601f19601f820116820180604052508101906104e991906110c8565b61051f576040517f09bde33900000000000000000000000000000000000000000000000000000000815260040160405180910390fd5b5f5f90505b83839050811015610641575f848483818110610543576105426110f3565b5b905060200201359050600160028111156105605761055f610f7a565b5b60045f8381526020019081526020015f205f9054906101000a900460ff1660028111156105905761058f610f7a565b5b0361063357600260045f8381526020019081526020015f205f6101000a81548160ff021916908360028111156105c9576105c8610f7a565b5b02179055507f000000000000000000000000000000000000000000000000000000000000000073ffffffffffffffffffffffffffffffffffffffff16817f7971f6ddf411cd7680d23877011f0dd37f4f3febbcb4561160b1ae338f91e68d60405160405180910390a35b508080600101915050610524565b508560018190555060035f81548092919060010191905055506003547f75525dfeedff7a993ebc944006ec4885824a6f7731002b3c87c5ed786bd056f6828860405161068e929190611120565b60405180910390a25061069f610acf565b5050505050565b60015481565b6106b461083b565b6106bc610ae9565b565b6004602052805f5260405f205f915054906101000a900460ff1681565b6106e361083b565b5f73ffffffffffffffffffffffffffffffffffffffff168173ffffffffffffffffffffffffffffffffffffffff1603610753575f6040517f1e4fbdf700000000000000000000000000000000000000000000000000000000815260040161074a9190610d94565b60405180910390fd5b61075c816109a9565b50565b610767610a6c565b61076f610aad565b5f34036107a8576040517f2c5211c600000000000000000000000000000000000000000000000000000000815260040160405180910390fd5b600160045f8381526020019081526020015f205f6101000a81548160ff021916908360028111156107dc576107db610f7a565b5b02179055503373ffffffffffffffffffffffffffffffffffffffff16817f53519214275db5bc8bf6ddb7ce02f40b0bb0f841d7fe4770ebb7d8de10dae2c6346040516108289190610c38565b60405180910390a3610838610acf565b50565b610843610b4a565b73ffffffffffffffffffffffffffffffffffffffff16610861610404565b73ffffffffffffffffffffffffffffffffffffffff16146108c057610884610b4a565b6040517f118cdaa70000000000000000000000000000000000000000000000000000000081526004016108b79190610d94565b60405180910390fd5b565b6108ca610b51565b5f5f5f6101000a81548160ff0219169083151502179055507f5db9ee0a495bf2e6ff9c91a7834c1ba4fdd244a5e8aa4e537bd38aeae4b073aa61090b610b4a565b6040516109189190610d94565b60405180910390a1565b7f000000000000000000000000000000000000000000000000000000000000000073ffffffffffffffffffffffffffffffffffffffff163373ffffffffffffffffffffffffffffffffffffffff16146109a7576040517f2c0e042e00000000000000000000000000000000000000000000000000000000815260040160405180910390fd5b565b5f5f60019054906101000a900473ffffffffffffffffffffffffffffffffffffffff169050815f60016101000a81548173ffffffffffffffffffffffffffffffffffffffff021916908373ffffffffffffffffffffffffffffffffffffffff1602179055508173ffffffffffffffffffffffffffffffffffffffff168173ffffffffffffffffffffffffffffffffffffffff167f8be0079c531659141344cd1fd0a4f28419497f9722a3daafe3b4186f6b6457e060405160405180910390a35050565b610a746103b9565b15610aab576040517fd93c066500000000000000000000000000000000000000000000000000000000815260040160405180910390fd5b565b610ab5610b91565b6002610ac7610ac2610bd2565b610bfb565b5f0181905550565b6001610ae1610adc610bd2565b610bfb565b5f0181905550565b610af1610a6c565b60015f5f6101000a81548160ff0219169083151502179055507f62e78cea01bee320cd4e420270b5ea74000d11b0c9f74754ebdbfc544b05a258610b33610b4a565b604051610b409190610d94565b60405180910390a1565b5f33905090565b610b596103b9565b610b8f576040517f8dfc202b00000000000000000000000000000000000000000000000000000000815260040160405180910390fd5b565b610b99610c04565b15610bd0576040517f3ee5aeb500000000000000000000000000000000000000000000000000000000815260040160405180910390fd5b565b5f7f9b779b17422d0df92223018b32b4d1fa46e071723d6817e2486d003becc55f005f1b905090565b5f819050919050565b5f6002610c17610c12610bd2565b610bfb565b5f015414905090565b5f819050919050565b610c3281610c20565b82525050565b5f602082019050610c4b5f830184610c29565b92915050565b5f73ffffffffffffffffffffffffffffffffffffffff82169050919050565b5f819050919050565b5f610c93610c8e610c8984610c51565b610c70565b610c51565b9050919050565b5f610ca482610c79565b9050919050565b5f610cb582610c9a565b9050919050565b610cc581610cab565b82525050565b5f602082019050610cde5f830184610cbc565b92915050565b5f5ffd5b5f5ffd5b5f610cf682610c51565b9050919050565b610d0681610cec565b8114610d10575f5ffd5b50565b5f81359050610d2181610cfd565b92915050565b5f60208284031215610d3c57610d3b610ce4565b5b5f610d4984828501610d13565b91505092915050565b5f8115159050919050565b610d6681610d52565b82525050565b5f602082019050610d7f5f830184610d5d565b92915050565b610d8e81610cec565b82525050565b5f602082019050610da75f830184610d85565b92915050565b5f819050919050565b610dbf81610dad565b8114610dc9575f5ffd5b50565b5f81359050610dda81610db6565b92915050565b5f5ffd5b5f5ffd5b5f5ffd5b5f5f83601f840112610e0157610e00610de0565b5b8235905067ffffffffffffffff811115610e1e57610e1d610de4565b5b602083019150836001820283011115610e3a57610e39610de8565b5b9250929050565b5f5f83601f840112610e5657610e55610de0565b5b8235905067ffffffffffffffff811115610e7357610e72610de4565b5b602083019150836020820283011115610e8f57610e8e610de8565b5b9250929050565b5f5f5f5f5f60608688031215610eaf57610eae610ce4565b5b5f610ebc88828901610dcc565b955050602086013567ffffffffffffffff811115610edd57610edc610ce8565b5b610ee988828901610dec565b9450945050604086013567ffffffffffffffff811115610f0c57610f0b610ce8565b5b610f1888828901610e41565b92509250509295509295909350565b610f3081610dad565b82525050565b5f602082019050610f495f830184610f27565b92915050565b5f60208284031215610f6457610f63610ce4565b5b5f610f7184828501610dcc565b91505092915050565b7f4e487b71000000000000000000000000000000000000000000000000000000005f52602160045260245ffd5b60038110610fb857610fb7610f7a565b5b50565b5f819050610fc882610fa7565b919050565b5f610fd782610fbb565b9050919050565b610fe781610fcd565b82525050565b5f6020820190506110005f830184610fde565b92915050565b5f82825260208201905092915050565b828183375f83830152505050565b5f601f19601f8301169050919050565b5f61103f8385611006565b935061104c838584611016565b61105583611024565b840190509392505050565b5f6060820190506110735f830187610f27565b6110806020830186610f27565b8181036040830152611093818486611034565b905095945050505050565b6110a781610d52565b81146110b1575f5ffd5b50565b5f815190506110c28161109e565b92915050565b5f602082840312156110dd576110dc610ce4565b5b5f6110ea848285016110b4565b91505092915050565b7f4e487b71000000000000000000000000000000000000000000000000000000005f52603260045260245ffd5b5f6040820190506111335f830185610f27565b6111406020830184610f27565b939250505056fea2646970667358221220a022f9129936b2e4b989184dd409531e1f33e8ad57471b7891c0179b3134de8164736f6c63430008210033","linkReferences":{}},"methodIdentifiers":{"SEQUENCER()":"75fd4ca9","currentBatchId()":"0a763da1","currentStateRoot()":"ac2eba98","depositIntent(bytes32)":"f6eb8eca","intentRegistry(bytes32)":"df39565b","owner()":"8da5cb5b","pauseSystem()":"dc1d4fb7","paused()":"5c975abb","renounceOwnership()":"715018a6","setVerifier(address)":"5437988d","transferOwnership(address)":"f2fde38b","unpauseSystem()":"4c761240","updateStateWithIntents(bytes32,bytes,bytes32[])":"97b7fe27","verifier()":"2b7ac3f3"},"id":24}