{"abi":[{"type":"function","name":"verifyProof","inputs":[{"name":"oldStateRoot","type":"bytes32","internalType":"bytes32"},{"name":"newStateRoot","type":"bytes32","internalType":"bytes32"},{"name":"proof","type":"bytes","internalType":"bytes"}],"outputs":[{"name":"","type":"bool","internalType":"bool"}],"stateMutability":"pure"}],"bytecode":{"object":"0x6080604052348015600e575f5ffd5b506103478061001c5f395ff3fe608060405234801561000f575f5ffd5b5060043610610029575f3560e01c80638f91ba4c1461002d575b5f5ffd5b6100476004803603810190610042919061018d565b61005d565b6040516100549190610218565b60405180910390f35b5f5f83839050116100a3576040517f08c379a000000000000000000000000000000000000000000000000000000000815260040161009a9061028b565b60405180910390fd5b8385036100e5576040517f08c379a00000000000000000000000000000000000000000000000000000000081526004016100dc906102f3565b60405180910390fd5b60019050949350505050565b5f5ffd5b5f5ffd5b5f819050919050565b61010b816100f9565b8114610115575f5ffd5b50565b5f8135905061012681610102565b92915050565b5f5ffd5b5f5ffd5b5f5ffd5b5f5f83601f84011261014d5761014c61012c565b5b8235905067ffffffffffffffff81111561016a57610169610130565b5b60208301915083600182028301111561018657610185610134565b5b9250929050565b5f5f5f5f606085870312156101a5576101a46100f1565b5b5f6101b287828801610118565b94505060206101c387828801610118565b935050604085013567ffffffffffffffff8111156101e4576101e36100f5565b5b6101f087828801610138565b925092505092959194509250565b5f8115159050919050565b610212816101fe565b82525050565b5f60208201905061022b5f830184610209565b92915050565b5f82825260208201905092915050565b7f50726f6f662063616e6e6f7420626520656d70747900000000000000000000005f82015250565b5f610275601583610231565b915061028082610241565b602082019050919050565b5f6020820190508181035f8301526102a281610269565b9050919050565b7f5374617465206d757374207472616e736974696f6e00000000000000000000005f82015250565b5f6102dd601583610231565b91506102e8826102a9565b602082019050919050565b5f6020820190508181035f83015261030a816102d1565b905091905056fea2646970667358221220a2959a191f42bc5d3fdcbe5041dd8a7317515d7a47d21139e22c8249d06bd7a564736f6c63430008210033","linkReferences":{}},"methodIdentifiers":{"verifyProof(bytes32,bytes32,bytes)":"8f91ba4c"},"id":25}